:020000040800F2
:10000000481E0020E5010008ED010008CD010008B0
:10001000F1010008F3010008F501000800000000EC
:10002000000000000000000000000000F7010008D0
:10003000F901000800000000B10200089D37000827
:10004000FF010008FF010008FF010008FF01000890
:10005000FF010008FF010008FF010008FF01000880
:10006000FF010008FF010008FF010008FF01000870
:10007000FF010008FF010008FF010008FF01000860
:10008000FF010008FF010008FF010008FF01000850
:10009000FF010008FF010008FF010008FF01000840
:1000A000FF010008FF010008FF010008FF01000830
:1000B000FF010008FF010008FF010008FF01000820
:1000C000FF010008FF010008FF010008FF01000810
:1000D000FF010008993A0008AD3A0008C13A00084B
:1000E000FF010008FF010008FF010008FF010008F0
:1000F000FF010008FF010008FF010008FF010008E0
:10010000FF010008FF010008FF010008FF010008CF
:10011000FF010008FF010008FF010008FF010008BF
:10012000FF010008FF010008FF010008FF010008AF
:1001300000F002F800F03AF80AA090E8000C8244BF
:100140008344AAF10107DA4501D100F02FF8AFF29C
:10015000090EBAE80F0013F0010F18BFFB1A43F0A5
:1001600001031847144B0000344B0000103A24BF21
:1001700078C878C1FAD8520724BF30C830C144BF0C
:1001800004680C607047000000230024002500264E
:10019000103A28BF78C1FBD8520728BF30C148BFEA
:1001A0000B6070471FB51FBD10B510BD00F074FA8D
:1001B0001146FFF7F7FF04F02DFC00F092FA03B4AC
:1001C000FFF7F2FF03BC04F021FC00001EF0040F57
:1001D0000CBFEFF30880EFF30980014908470000E6
:1001E000490900080948804709480047FEE7FEE73B
:1001F000FEE7FEE7FEE7FEE7FEE7FEE7FEE7FEE7D7
:1002000004480549054A064B70470000313A00088A
:100210003101000848160020481E0020481A00201E
:10022000481A0020F0B400EB4003DFF8800000EB38
:10023000C30000F118063069F768756887422ED34D
:10024000B368DC1B631E934212D37D19D01900BF23
:1002500011F8013B05F8013B521E05D011F8013B96
:1002600005F8013B521EF3D1F0600120F0BC70474D
:10027000C018904217D37819121B11F8013B00F8EF
:10028000013B641EF9D1141C05D011F8013B05F89F
:10029000013B521EF9D1F4600120F0BC7047C01B35
:1002A000401E9042D1D20020F0BC7047780B002055
:1002B00045488168002904BF08B007E0EFF30982D0
:1002C000A2F128024A60036882E8F84F3F49884754
:1002D000816899B14A6892E8F84F036002F12802F8
:1002E00082F3098890693A49884202DB394A904290
:1002F00003DB4FF0000181F3118870473648006836
:10030000203836490968401A80F308884FF0807118
:10031000C161334981617FF0060E704701BC3148ED
:100320008047204602BC88475DF804EB2E49084709
:100330002E48C068002807D0EFF314816A46734640
:1003400080E8FE0F2A4880472A4800682A49096841
:10035000401A20F0070080F308884FF0000127487A
:10036000417081F3118862B625494FF080520A60CE
:10037000BFF34F8FBFF36F8FFEE72248C06890E84E
:10038000FE0F81F31488BFF36F8F95469E4670472A
:1003900003680CB44FF00001417081F311881849D3
:1003A0004FF080520A60BFF34F8FBFF36F8F0CBCCA
:1003B0000360704712494FF080520A60BFF34F8FBD
:1003C000BFF36F8F704700BF60010020A50E0008CB
:1003D00091030008B2030008E40100205C4B000810
:1003E000F9120008211D0008391D000860010020D5
:1003F00029180008E40100205C4B0008600100207F
:1004000004ED00E06001002053EA020C00F0698076
:100410002DE9F04B4FF00006002B1FBFB3FA83F518
:1004200003FA05F424FA05F65E4012BF1643B2FA49
:1004300082F502FA05F4C5F120051EBF22FA05FC7B
:1004400044EA0C04203556EA044C4FEA144418BF21
:10045000641C4FF000084FF00009904271EB030C50
:1004600039D3002919BFB1FA81F701FA07F6B0FABA
:1004700080F700FA07F6C7F120071EBF20FA07FC35
:1004800046EA0C062037B6FBF4FCA7EB0507103F45
:1004900007F01F0BCBF120062CFA06F60CFA0BFB2B
:1004A00044BFB3460026202FA4BF5E464FF0000B8A
:1004B0005BEA060C08BF4FF0010B19EB0B0948EB88
:1004C0000608ABFB027C06FB02CC0BFB03CCC01B7B
:1004D00071EB0C01C1E70B46024641464846BDE8B8
:1004E000F08B13B5084318BF4FF0FF300146AFF350
:1004F0000080BDE81C407047032A40F2308010F0B5
:10050000030C00F0158011F8013BBCF1020F6244AE
:1005100098BF11F801CB00F8013B38BF11F8013B3F
:10052000A2F1040298BF00F801CB38BF00F8013BEC
:1005300011F0030300F05780083AC0F0088051F82A
:10054000043B083A51F804CBA0E80810F5E7121D67
:100550005CBF51F8043B40F8043BAFF30080D20786
:1005600024BF11F8013B11F801CB48BF11F8012B52
:1005700024BF00F8013B00F801CB48BF00F8012B75
:10058000704702F0FF0343EA032242EA024200F00E
:100590005EB84FF0000200B51346944696462039E7
:1005A00022BFA0E80C50A0E80C50B1F12001BFF42C
:1005B000F7AF090728BFA0E80C5048BF0CC05DF892
:1005C00004EB890028BF40F8042B08BF704748BFE0
:1005D00020F8022B11F0804F18BF00F8012B704754
:1005E00070477047704710B5203AC0F00B80B1E8F3
:1005F0001850A0E81850B1E81850A0E81850203A58
:10060000BFF4F5AF5FEA027C24BFB1E81850A0E860
:10061000185044BF18C918C0BDE810405FEA827C7A
:1006200024BF51F8043B40F8043B08BF7047D20791
:1006300028BF31F8023B48BF11F8012B28BF20F832
:10064000023B48BF00F8012B70474FF0000204291D
:10065000C0F0128010F0030C3FF49DAFCCF1040CFD
:10066000BCF1020F18BF00F8012BA8BF20F8022B25
:10067000A1EB0C01FFF78FBF5FEAC17C24BF00F83C
:10068000012B00F8012B48BF00F8012B7047000038
:1006900000487047100000207546FFF7F9FFAE468E
:1006A00005006946534620F00700854618B020B57E
:1006B000FFF7A6FDBDE820404FF000064FF0000711
:1006C0004FF000084FF0000BAC46ACE8C009ACE8B6
:1006D000C009ACE8C009ACE8C00921F007018D46AB
:1006E000704710B50446AFF300802046BDE81040C7
:1006F000FFF765BD81B000900098011D012000FA50
:1007000001F240F61001C4F20101086810430860CC
:1007100001B0704741F21801C4F20201086840F0CC
:100720000400086040F60001C4F201010868C3F249
:100730003330086040F61001C4F20101086840F04F
:10074000F00008607047000081B000900098011D23
:10075000012000FA01F240F61401C4F20101086818
:100760001043086001B0704780B582B0019040F638
:100770000C00C4F20100006801990431C840C007B0
:1007800020B9FFE70198FFF7B5FF03E00198FFF7F5
:10079000DBFFFFE702B080BD88B007900691002024
:1007A0000590049003900290019000900698C07804
:1007B00000F00F0005900698C078C006002806D506
:1007C000FFE706988178059808430590FFE70698AB
:1007D000007800284BD0FFE70798006801900020C0
:1007E0000390FFE7039807283DD8FFE7039901200E
:1007F0008840029006980088029908400490049866
:10080000029988422AD1FFE703988000029002995A
:100810000F20884000900099019888430190059826
:10082000029900FA01F10198084301900698C078F6
:10083000282806D1FFE703990120884007994861DD
:100840000BE00698C078482806D1FFE703990120FD
:10085000884007990861FFE7FFE7FFE7FFE7039894
:1008600001300390BEE7019807990860FFE70698FA
:100870000088B0F5807F50DBFFE707984068019063
:1008800000200390FFE70398072842D8FFE703986A
:1008900000F1080101208840029006980088029922
:1008A000084004900498029988422DD1FFE70398EC
:1008B0008000029002990F208840009000990198D2
:1008C000884301900598029900FA01F101980843C4
:1008D00001900698C078282808D1FFE7039800F116
:1008E00008010120884007994861FFE70698C07811
:1008F000482808D1FFE7039800F10801012088404B
:1009000007990861FFE7FFE7FFE7039801300390CD
:10091000B9E7019807994860FFE708B07047000001
:1009200082B00190ADF80210BDF802000199086193
:1009300002B0704780B5FFE70020FFF715FF3220B7
:1009400001F040F8F8E7000083B002904EF62C501A
:10095000CEF200000068C00F68B1FFE74EF62C51E0
:10096000CEF20001086840F00040086002998869F2
:100970000230886171E04EF62450CEF2000000682B
:1009800040F22011C2F20001019108624EF6285097
:10099000CEF20000007881F824004EF62950CEF205
:1009A0000000007881F828004EF63850CEF20000A2
:1009B0000068C8624EF62A50CEF200000088088611
:1009C0004EF62C50CEF20000006848634EF63050D0
:1009D000CEF20000006888634EF63C50CEF2000074
:1009E0000068C86340F66431C2F20001002008606C
:1009F000FFE740F66430C2F20000006808B9FFE784
:100A0000F7E70298006840F22011C2F2000100915D
:100A10000860029840684860029880688860029880
:100A2000C068C8600298006908610298406948611E
:100A30000298806988610298C069C86140F6643193
:100A4000C2F2000100200860FFE740F66430C2F205
:100A50000000006808B9FFE7F7E703B0704700003F
:100A600080B582B000F08AFD00285DD0FFE740F637
:100A70007030C2F20000006848B9FFE703F0CEFA18
:100A800040F67031C2F2000101200860FFE740F635
:100A90006030C2F20000006810F8170C002842D045
:100AA000FFE740F65840C2F20000006890B1FFE74F
:100AB00040F65840C2F20000016801390160006848
:100AC00038B9FFE740F65441C2F200010120086046
:100AD000FFE7FFE740F65440C2F200000068E0B1D3
:100AE000FFE740F66030C2F200000090016800208D
:100AF000019001F8170C40F65441C2F20001086061
:100B000040F64C41C2F20001086003F04DF8009934
:100B10000198096801F8180C04E003F089FB03F060
:100B2000DBFBFFE7FFE7FFE702B080BD80B582B0E7
:100B30008DF8070000F022FD002858D0FFE740F6AE
:100B40007030C2F20000006848B9FFE703F066FAAF
:100B500040F67031C2F2000101200860FFE740F664
:100B60006030C2F20000006810F8170C90B3FFE785
:100B700040F66030C2F20000006810F8160CD0B9E0
:100B8000FFE703F089FA38B1FFE79DF8070003F0AB
:100B90006BF903F091FE0DE040F64C41C2F200010A
:100BA000012008609DF8070040F65041C2F20001A4
:100BB0000870FFE70DE040F64C41C2F20001012051
:100BC00008609DF8070040F65041C2F2000108702D
:100BD000FFE70BE040F26011C2F20001087801303B
:100BE000087000F0BBF800F081FFFFE70BE040F277
:100BF0006011C2F2000108780130087000F0AEF810
:100C000000F074FFFFE702B080BD000081B00090EB
:100C1000009841F22461C2F20001086001B07047FF
:100C200081B00090009841F22861C2F20001086092
:100C300001B0704781B00090009841F22C61C2F27F
:100C40000001086001B0704780B586B0182001210E
:100C500001F0A2F920200190ADF8140010208DF8C9
:100C6000170003208DF8160040F60040C4F2010082
:100C7000009005A90291FFF78FFD00980199FFF7F9
:100C80004FFE02994FF400500490ADF8140041F269
:100C90000000C4F201000390FFF77EFD0398049961
:100CA000FFF73EFE06B080BD80B5FFE70120FFF7ED
:100CB0005BFDC82000F086FEF8E7000080B5FFE786
:100CC00040F2B411C4F22221086880F001000860EB
:100CD000642000F077FEF3E710B5144C4FF6F07186
:100CE000206808404CF2702188420AD1206810F434
:100CF000700F06D1206810F00E0F02D1FE2000F018
:100D00006FFAEFF3108072B6216A41F47F0121621D
:100D100080F310880020EFF31480800758BF10BDC7
:100D2000A720BDE8104000F05BBA00BF00ED00E076
:100D300080B500F073FA042808D80146A320DFE844
:100D400001F0090708030300A72003E0A82001E041
:100D500080BDA620BDE8804000F042BA4F48002187
:100D60000170417081700161704700BF4B4801798B
:100D70008A1C02712030425C0131C9B2405C40EAF9
:100D8000022080B2704700BF10B5FFF7EFFF0446A6
:100D9000FFF7ECFF40EA044010BD03F0BBB90000D0
:100DA000B0B53E4D0446687910B1B42000F018FA91
:100DB00001206871A879052839D8DFE800F0030A16
:100DC0000E15272EED2C32D10020A5F803000120AE
:100DD0002CE08C2C29D1022028E034B3092C24D219
:100DE0002C72EC71032021E0E878072804D8411C1C
:100DF0002844E97080F82040E879297A01382144B4
:100E0000E8710006297212D104200FE0287A2044EC
:100E10002872000609D1052008E08D2C05D102F0CA
:100E200027FF10B1688103F089FB0020A871002022
:100E30006871B0BD80B503F06DF9002804D4C0B26C
:100E400000F004F8002080BD012080BD80B582B094
:100E50008DF807009DF80700FFF768FE02B080BD1F
:100E600010B50446000A00F00FF82046BDE8104017
:100E700000F00AB810B50446000CFFF7F1FF204659
:100E8000BDE81040FFF7ECBF04494A89C72A03D8E0
:100E9000034B9854501C4881704700BF70000020DD
:100EA000401100202DE9F843F54C00250120657024
:100EB0002070802080F31188606B50B1617801311F
:100EC0006170804784F87A50C4E90D556078013824
:100ED0006070002080F3118800F0C2FB0078CD28FC
:100EE00002D07D2000F07CF9A06898B1C16A097831
:100EF000CD2904D0782000F073F9A06850B10546E0
:100F000055F8441F31B14068096888476D680DB1D4
:100F10002968F9E794F87C0098B3A06894F87B10EE
:100F200080F84D10207960B30021802080F3118873
:100F30002171A06881F3118800B30268F2B10369DE
:100F4000116999421AD11146126812B115699D4270
:100F5000F9D0802282F311880268E369834208BFD6
:100F6000E261036A1A60136201620A68026002B1F8
:100F70001062086091F84E0081F84D00002080F367
:100F8000118894F87900D0B1C0070ED000F07AFE35
:100F900092494968081AB0F1FF3F06DC94F87900DD
:100FA00010F0FE0084F8790009D000F0F9FEA16885
:100FB00021B1226F8B6B821A1A448A632067A06862
:100FC00028B190F84C1011B9416B01314163E069CF
:100FD00080B380264FF0000886F31188E56965B379
:100FE00095F84C704FB3780711D5E16AE868411A5B
:100FF000002906DD216B411AB1F1FF3FD8BF206304
:1010000005E0284600F0D8FA95F84C0090B107F0BA
:10101000FB00102809D1A8688068406890F84C103F
:1010200019B929690069884204D12868E06188F308
:101030001188D1E7802080F3118800266FF00048E6
:1010400004F118098027607988B36671E06AA16AA3
:101050004044206309B12046884786F311884D46F5
:101060002D6887F31188002DEDD0E06918B1006973
:1010700029698142E7D395F84C00400714D5E16A0D
:10108000E868411A002909DC284600F095FA87F340
:10109000118895F84C000028D5D0E868216B411ADA
:1010A000B1F1FF3FD8BF206386F31188D8E7002055
:1010B0006060E569EDB395F84C00B0B1A868806850
:1010C00046683168306A0160316801B10862286998
:1010D0003061E06B10B1C168304688470120294675
:1010E0006070304600F0F0F9E661E06990F84F106A
:1010F000A0600F2902D000F03DFFA068054655F81A
:10110000441F39B14068496888476D680DB1296846
:10111000F9E7A06890F84D1084F87C1084F87B10F3
:10112000E16B11B149698847A068016B0131016326
:101130000AE0E06B08B1406A80470020A4F87B0019
:10114000A060207080F31188DE48BDE8F88300BFFE
:10115000B0B5DC4C2578681C2070E06B08B100F05D
:10116000E7FE2046FFF714F925706078102801D3B8
:1011700000F05EFE607800B1B0BD002080F3118801
:10118000B0BD00BF10B5EF4C6078102801D300F05F
:101190004FFE802080F31188607894F87910013038
:1011A000607029B9012084F8790000F0F9FD20670A
:1011B000E06A41F2883108440849486060781028A4
:1011C00001D300F035FE607801386070607800B1BE
:1011D00010BD002080F3118810BD00BF98000020D2
:1011E00081B0ADF8020040F26011C2F2000108784F
:1011F000013008700020487080F31188BDF80200AB
:10120000A1F87400FFE740F26010C2F20000B0F8ED
:10121000740008B1FFE7F6E701B07047EFF305800F
:1012200080B10E2804BF0420704707490F2884BFEF
:101230004EF2F031CEF2000109560120B1F1FF3F2C
:10124000C8BF0220704700BF14ED00E010B5D94CB4
:10125000E06B18B1816A40F23B108847FFF7DEFF70
:10126000012804D100F054FE01D100F0DEFDE06B56
:1012700020B1C26C034940F23B109047014810BDB9
:1012800060010020444B000810B5EE4CE06B18B133
:10129000816A40F23D108847FFF7C0FF012804D162
:1012A00000F036FE01D100F0C0FDE06B20B1C26C51
:1012B000024940F23D109047004810BD544B0008D1
:1012C00010B5E04CE06B18B1816A40F23F108847DE
:1012D000FFF7A4FF012804D100F01AFE01D100F0AD
:1012E000A4FDE06B28B1C26C40F23F104CF69111A6
:1012F00090474CF6911010BDFFE7FEE780B588B02F
:1013000040F26010C2F200004078102804D3FFE7DA
:101310009920FFF765FFFFE7802080F3118840F2F6
:101320006011C2F20001029148780130487002F069
:10133000EDFA40F20800C2F200000190006844F6A5
:10134000D351C1F26201A0FB0110800902F0FCF947
:101350004FF0FF300E2103F0B7FA019800680390B8
:101360004FF47A70049000208DF8140044F2F900D4
:10137000C0F60000069044F20510C0F60000079089
:1013800003A800F02FFC00F087FF40F6A150C0F644
:101390000000FFF745FC40F63560C0F60000FFF79F
:1013A00049FC40F69B50C0F60000FFF72FFC029866
:1013B0004078102804D3FFE79920FFF711FFFFE7DB
:1013C00040F26010C2F2000041780139417040786B
:1013D00020B9FFE7002080F31188FFE708B080BD47
:1013E00040F2E010C2F2000041F64821C2F20001D2
:1013F000016041F64860C2F20000411A40F2E81272
:10140000C2F20002116040F2E411C2F20001086071
:101410007047000070B5274800680078532803D152
:101420002548807908B1FEE7FEE724484CF6911183
:10143000006888423DD12248FA4D01216FF00042F8
:10144000C0E90611C0E90811C0E90A1195F8760053
:101450002A6358B1012806D1686A38B9A86828B14A
:1014600000F001FD02D1E320FFF7BAFE686A20B167
:1014700000F0F9FC01D100F04FFDFFF7CFFE01288D
:1014800001D100F03CFDFFF727FCFFF7A9FF012683
:101490002E7000F0E5F8044600F0DFF8001BB0F114
:1014A000200103D02046CD22FFF76BF885F8786045
:1014B00070BDFEE7704B00082C4B00086C4B000819
:1014C000EC0100206001002070B5044600690D4663
:1014D00018B9CB20FFF784FE2069E04E3178013146
:1014E00031700DB1296809E006F11805296821B1AC
:1014F0000A69904202D20D46F8E700212562216078
:101500002C6041B10C62096981420CBF94F84E0015
:10151000002084F84D0094F84C0078B9802080F3C6
:101520001188204600F048F87078102801D300F0A8
:101530007FFC707810B9002080F31188BDE87040FE
:1015400000F0D4BA600100200B4881684A1C826018
:1015500001B17047EFF311814160802080F3118861
:10156000704700BF044881680139816000D070472E
:10157000406880F3118870470401002010B5B74C13
:10158000E06B18B1816A4FF4AC708847FFF746FEF4
:10159000012804D100F0DBFC01D100F092FCE06BEB
:1015A00094F8764018B1816C4FF4AC7088472046AF
:1015B00010BD00BF60010020B0B5A84C0546E06B2F
:1015C00010B1C16928468847A86820B1E06AE86080
:1015D000284600F039F895F84C0010F0030085F823
:1015E0004C002AD1E06918B102692969914205D9F4
:1015F000E561207878B10120607117E0A842F8D049
:1016000091421AD12A46126882B1136999420DD1CA
:101610008242F8D1ECE701202070E06B08B100F0C5
:1016200087FC2046FEF7B4FE00202070607810286A
:1016300001D300F0FDFB607800B1B0BD002080F365
:101640001188B0BD600100208268D2E9001201B1AA
:101650004A6000231160836070476846704700004D
:1016600001480068704700BFE001002001480068A1
:10167000704700BFE801002070B5FB4D00F063FC2F
:1016800005D000F01AFC01464FF4A170B047FFF7F7
:10169000C5FD012804D100F0E2FB01D100F0C5FB3B
:1016A000BCB995F87600012805D010B900F0D7FB39
:1016B00001D100F058FC686A20B100F0D0FB01D1E4
:1016C00000F01AFCFFF7AAFD012801D100F004FC8C
:1016D000AC6894F84F000F2801D000F026FCE86BAE
:1016E000E46A20B1C26C4FF4A170214690472046B5
:1016F00070BD00BF70B5DC4D00F025FC05D000F0DA
:10170000DCFB014640F24310B047FFF787FD01289C
:1017100004D100F0A4FB01D100F087FBBCB995F81F
:101720007600012805D010B900F099FB01D100F036
:101730001AFC686A20B100F092FB01D100F0DCFBDA
:10174000FFF76CFD012801D100F0C6FBAC6894F8EE
:101750004F000F2801D000F0E8FBE86BA46A20B12D
:10176000C26C40F2431021469047204670BD00BF36
:1017700070B5F64E0446F06B38B1C16BC56A2046B1
:101780008847014640F22710A847FFF747FD012888
:1017900004D196F8770008B900F093FBC4B996F825
:1017A0007600012806D010B996F8770010B9E2202B
:1017B000FFF716FD706A20B196F8770008B900F0BF
:1017C000ABFBFFF72BFD012801D100F098FBB468BB
:1017D00094F84F000F2801D000F0CCFB3078013096
:1017E0003070B068A56B844211D1802080F31188DD
:1017F00000F0D6FA316F401A05447078102801D3F2
:1018000000F016FB707810B9002080F3118800F00A
:101810006DF9F06B20B1C26C40F227102946904759
:10182000284670BD6001002070B5FFF719FFEB4D31
:10183000E9684C68061BFFF719FF3218E868016B6E
:101840008A4204D9FB20BDE87040FFF7C9BCC06ADA
:101850002146BDE87040FEF74FBE00BF600100208A
:101860002DE9FE4F0D460E99DC4E04461F46934669
:10187000F06B0291DDE90C9A70B1B8462F46D0E9C1
:101880000E512046884701462E205A464B46CDF839
:1018900000A0A8473D46474696F8780010B9A52015
:1018A000FFF79EFC706A20B100F060FB01D100F0F0
:1018B000D0FAFFF7B3FC012801D100F00AFB802029
:1018C00080F3118806F11808D8F80080B8F1000FED
:1018D00005D0A045F8D1AA20FFF782FCF4E7DFF895
:1018E000408598F80100102801D300F026FB98F8F5
:1018F000010010B9002080F3118820465021FEF726
:1019000048FE0F20C4E904BB656284F84F000298CA
:10191000BAF1570F84F84E0098F87D0084F84C0017
:1019200002D87820FFF75CFC00F0B8FA00F0BDFAAE
:1019300008D001692046884700F0B7FA02D0C16894
:10194000204688470AEB0900B91C1C4A4FF0000CDE
:10195000583820F00700C0E913714FF080716060C3
:10196000C0E91021164A6FF002014162931C551C18
:1019700002F1090ED61D971D511D436302F10A03A2
:10198000C0E90B2502F10805C0E904760362131DC6
:101990000332C0E9065EC0E90231C0E900C2204658
:1019A0000021FFF791FD00F080FA05D0816C2E2018
:1019B00003B0BDE8F04F0847BDE8FE8F1D030008E7
:1019C0000100CCCCB0B5EA4D00F0C5FA03D0C26A34
:1019D0002A2021469047686A20B100F04CFA01D1D4
:1019E00000F037FAFFF71AFC012801D100F071FA74
:1019F000012C04DB00F046F9204402F06BF8E86BA0
:101A000020B1816C2A20BDE8B0400847B0BD00BFBE
:101A100070B5D74D00F09FFA05D000F065FA014689
:101A200040F21510B047FFF7F9FB012804D100F090
:101A300022FA01D100F066FAAE68002C18BF2646E3
:101A40003EB196F84F000F2801D000F068FA746A92
:101A500000E0064CE86B20B1C26C40F21510214644
:101A60009047204670BD00BF60010020604B000819
:101A700070B5EB4D00F06FFA05D000F035FA014675
:101A80004FF48B70B047FFF7C9FB012804D100F079
:101A9000F2F901D100F036FABCB995F876000128C8
:101AA00005D010B900F0E7F901D100F0F4F9686A47
:101AB00020B100F0E0F901D100F0CBF9FFF7AEFB67
:101AC000012801D100F005FAAC6800F0F2F901D06C
:101AD00000F025FAE86B94F84D4020B1C26C4FF449
:101AE0008B7021469047204670BD00BF10B5CC4C8E
:101AF000207810B99720FFF773FB20780138207009
:101B0000207800B110BD60680028FBD0802080F3F1
:101B10001188606868B101202070E06B20B1026A12
:101B2000A06890F84C1090472046FEF731FC00204A
:101B300020706078102801D300F0FFF96078002849
:101B4000E0D1002080F3118810BD00BF60010020AB
:101B5000B0B5B34CE06B18B1816A4FF4917088470F
:101B6000FFF75CFB012802D0A220FFF739FBFFF74B
:101B700055FB012805D194F8770010B9A420FFF790
:101B80002FFB174D2868012801D000F070F9686814
:101B9000012801D000F06BF9A06B10B100F094F9AE
:101BA0000CE000F048F95CBF0120607194F87B0004
:101BB00020B100F094F904BF0120207104F1480520
:101BC0002D6815B168688047FAE7E06B28B1816C31
:101BD0004FF49170BDE8B0400847B0BD60010020EF
:101BE00000000020F8B58E4D00F0C7F905D000F0D8
:101BF000B6F9014640F21B10B04794E84D00874902
:101C00002469B0FBF2F781E84D004FF47A72034685
:101C1000C1E9044733B1B2FBF3F404FB13241A46C1
:101C20002346F7E74FF47A74B0FBF2F3B4FBF2F219
:101C30000446C1E90623114A134614B100F024F901
:101C4000FBE7B0FBF3F4B2FBF3F2C1E908240C4A62
:101C50000446134614B100F017F9FBE7B0FBF3F0AC
:101C6000B2FBF3F2C1E90A20E86B28B1816C40F2C3
:101C70001B10BDE8F8400847F8BD00BF40420F0008
:101C800000CA9A3B10B5FFF7C9FA654C012804D188
:101C900094F8770008B900F0DFF8E06A10BD00BFE3
:101CA00010B5FFF7BBFA5E4C012804D194F8770019
:101CB00008B900F0D1F8E06A10BD00BF70B5584E09
:101CC000F06B10B1816AD6208847FFF7A7FA012888
:101CD00004D100F00DF901D100F0BEF800F060F879
:101CE00000F048F800F0CBF803D0C26CD6202146B3
:101CF000904700F00AB900BFB0B5494D0446686A84
:101D000028B195F8770010B9A120FFF769FAFFF71D
:101D100085FA012802D1A020FFF762FAEC63B0BD7A
:101D20003F48C16E19B182680023C2E91113806E69
:101D300000B10047704700BF9B20FFF751BA000079
:101D400010B5374C94F8780010B9A520FFF748FA81
:101D5000802080F3118894F8760010B1E420FFF71A
:101D60003FFA012084F87600BDE81040FEF7E0BAA3
:101D70006001002070B5294E05460C46F06808B990
:101D800000F0DEF8306908B900F0CCF8D6E90812A6
:101D9000A1FB050301FB04310023FEF735FB70BDF9
:101DA0002DE9F0411D4DE86808B900F0C9F828692F
:101DB00008B900F0B7F8802080F31188DFF8608060
:101DC000E868D8E90476804704462869804728B146
:101DD000E868013746F100068047044698F801009C
:101DE000102802D39920FFF7FBF998F8010010B9E9
:101DF000002080F31188686900232D7AA7FB001268
:101E000006FB0022001B63F10006002D1CBF1E46CE
:101E10002046401846EB0201BDE8F081EC010020AD
:101E2000600100209920FFF7DBB9A420FFF7D8B9A3
:101E30009920FFF7D5B9D4E90401E26A236B013098
:101E400002F1010241F10001E262C4E90401D01A89
:101E50007047A120FFF7C4B9A420FFF7C1B995F8D6
:101E600077000028704795F87700002870474FF4F6
:101E70008070FFF7B5B995F87700002870470446E1
:101E8000F06B0D4600287047B3FBF4F606FB1436E2
:101E9000234634467047E220FFF7A2B94846514630
:101EA000CD22C4E90AA9FEF76CBBD8F83C00002893
:101EB000704794F84F000F287047C16BC66A2046E0
:101EC0000847A420FFF78CB90120607184F87A00DC
:101ED0007047A020FFF784B9A020FFF781B901382F
:101EE00084F87B0000067047C16BC66A204608472D
:101EF00096F8770000287047A120FFF771B9A0205D
:101F0000FFF76EB9A420FFF76BB92046294670BDD4
:101F100094F8770000287047A120FFF761B980206E
:101F2000FFF75EB9EC20FFF75BB98020FFF758B9E7
:101F3000026AA06890F84C1010479920FFF750B93A
:101F4000EB20FFF74DB90446E86B0028704794F882
:101F50007700002870470446E86B00287047C16B83
:101F6000C66A20460847E220FFF73AB996F877009C
:101F7000002870478020FFF733B90446E86B00283B
:101F80007047000080B5FFE70220FEF7EDFB6420FC
:101F9000FFF718FDF8E7000082B001908DF80310FC
:101FA0009DF8030048B1FFE7019A41F21801C4F21D
:101FB000020108681043086008E0019A41F2180124
:101FC000C4F20201086890430860FFE702B070475E
:101FD00080B588B0079006910592049340F678305A
:101FE000C2F200000190FFE70198007818B9FFE7FE
:101FF00001F08CFDFFE7FFE7EFF311804FF02001C8
:1020000081F31188009040F67830C2F2000002900F
:1020100000200390FFE70298039901EB410100EBD8
:10202000C100C06908B9FFE709E0039801300390D7
:10203000FFE70398029909698842ECDBFFE7039800
:1020400002990969884230DAFFE707980299039AF2
:1020500002EB420201EBC201886106980299039AE1
:1020600002EB420201EBC201C86105980299039A92
:1020700002EB420201EBC20108620298039901EBF4
:10208000410100EBC101002088620299039A02EB32
:10209000420201EBC201486204980299039A02EBE2
:1020A000420201EBC201C86203E04FF0FF3003902F
:1020B000FFE7009880F31188039808B080BD000006
:1020C00080B58AB0DDF830C0099008910792069378
:1020D00040F67830C2F200000290FFE702980078E4
:1020E00018B9FFE701F012FDFFE7FFE740F678308F
:1020F000C2F200000490099802282AD8FFE7EFF303
:1021000011804FF0200181F3118801900498099902
:1021100001EB410100EBC10060300390099878B1F8
:10212000FFE70898039908600798039948600698A4
:10213000039988600399002008610399C860FFE74C
:102140000C9803994861019880F31188002005904C
:1021500003E04FF0FF300590FFE705980AB080BD1F
:1021600080B58EB00D900C910B9240F67830C2F293
:1021700000000390FFE70398007818B9FFE701F02B
:10218000C5FCFFE7FFE70D9800EB400140F6783013
:10219000C2F2000000EBC100603005900C98069080
:1021A0000598006908900598C0680790002009907C
:1021B00008980799884236D9FFE7059880680899FA
:1021C000401A0A900A980B99884203D2FFE70A98AE
:1021D000029002E00B980290FFE702980A9005989F
:1021E0004068089908440490069804990A9AFEF7F2
:1021F00083F90A990998084409900A9906980844AD
:1022000006900A990B98401A0B900A99089808446E
:102210000890089805998968884203D1FFE7002053
:102220000890FFE7FFE707980899401A0A900A9874
:102230000B99884203D2FFE70A98019002E00B98BD
:102240000190FFE701980A900A98D8B1FFE7059836
:102250004068089908440490069804990A9AFEF781
:102260004BF90A990998084409900A990698084474
:1022700006900A990B98401A0B900A9908980844FE
:102280000890FFE7099820B1FFE7089805990861D1
:10229000FFE709980EB080BD80B541F20000CEF294
:1022A000000000688001002812D4FFE741F200001E
:1022B000CEF200000068C00748B9FFE741F2000114
:1022C000CEF20001086840F001000860FFE7FFE778
:1022D00040F20800C2F20000016844F67432C0F611
:1022E000000244F60D13C0F60003084600F0AAF8F9
:1022F00044F69830C0F60000FFF7FEFC80BD0000F9
:1023000080B58CB0EFF311804FF0200181F311887C
:10231000099041F25C00C2F2000001F083FF0A90D4
:102320000A980B900B98089040F62040C2F20000EB
:1023300040680790FFE7079880280BD3FFE70798CE
:1023400040F0800008994A1C089208700798C0095C
:102350000790F0E7079808994A1C089208700898B7
:102360000B900B98069040F62040C2F20000806867
:102370000590FFE7059880280BD3FFE7059840F00C
:10238000800006994A1C069208700598C0090590BD
:10239000F0E7059806994A1C0692087006980B907B
:1023A0000B98049040F62040C2F2000000690390B0
:1023B000FFE7039880280BD3FFE7039840F08000E5
:1023C00004994A1C049208700398C0090390F0E72E
:1023D000039804994A1C0492087004980B900B9877
:1023E000029000200190FFE7019880280BD3FFE7BF
:1023F000019840F0800002994A1C029208700198EE
:10240000C0090190F0E7019802994A1C02920870F5
:1024100002980B900A980B99182201F097FF0998DF
:1024200080F3118840F62040C2F20000406A38B1C3
:10243000FFE740F62040C2F20000406A8047FFE715
:102440000CB080BD80B588B00790069105920493CA
:1024500044F62140C0F60000019040F65C41C2F213
:1024600000014FF4806200230393FFF7B1FD01994F
:10247000039A034640F62040C2F2000002904370E7
:1024800043780376007E6B461A6040F66832C2F2EB
:1024900000020823FFF714FE029903984FF0005240
:1024A0000A6141F20402CEF200021268CA60059A83
:1024B0000A62079A4A60069A8A60049A4A62087019
:1024C00008B080BD80B588B007900691EFF3118009
:1024D0004FF0200181F31188039041F25C00C2F2B9
:1024E000000001F09FFE049004980590059802906A
:1024F000079840F62041C2F200010969401A019094
:10250000FFE7019880280BD3FFE7019840F0800097
:1025100002994A1C029208700198C0090190F0E7E4
:10252000019802994A1C0292087002980590059839
:102530000699802201F04EFB059004980599192216
:1025400001F004FF039880F3118808B080BD0000FB
:1025500080B582B0EFF311804FF0200181F3118834
:10256000009041F25C00C2F2000001F05BFE0190BD
:1025700001991122084601F0E9FE009880F31188C4
:1025800002B080BD80B586B00590EFF311804FF0AA
:10259000200181F31188029041F25C00C2F2000038
:1025A00001F040FE039003980490059840F6204106
:1025B000C2F200010969401A05900498019005983B
:1025C0000090FFE7009880280BD3FFE7009840F0C9
:1025D000800001994A1C019208700098C00900907F
:1025E000F0E7009801994A1C019208700198049044
:1025F00003980499082201F0A9FE029880F311883B
:1026000006B080BD80B586B00590EFF311804FF025
:10261000200181F31188029041F25C00C2F20000B7
:1026200001F000FE039003980490059840F62041C5
:10263000C2F200010969401A0590049801900598BA
:102640000090FFE7009880280BD3FFE7009840F048
:10265000800001994A1C019208700098C0090090FE
:10266000F0E7009801994A1C0192087001980490C3
:1026700003980499042201F069FE029880F31188FE
:1026800006B080BD80B586B00590EFF311804FF0A5
:10269000200181F31188029041F25C00C2F2000037
:1026A00001F0C0FD039003980490059840F6204186
:1026B000C2F200010969401A05900498019005983A
:1026C0000090FFE7009880280BD3FFE7009840F0C8
:1026D000800001994A1C019208700098C00900907E
:1026E000F0E7009801994A1C019208700198049043
:1026F00003980499062201F029FE029880F31188BC
:1027000006B080BD80B582B0EFF311804FF020019C
:1027100081F31188009041F25C00C2F2000001F0E8
:1027200081FD019001990522084601F00FFE0098F5
:1027300080F3118802B080BD80B58AB009900891FD
:10274000EFF311804FF0200181F31188059041F2E1
:102750005C00C2F2000001F065FD0690069807904B
:10276000099840F62041C2F200010969401A099017
:102770000798049009980390FFE7039880280BD3EB
:10278000FFE7039840F0800004994A1C0492087007
:102790000398C0090390F0E7039804994A1C049237
:1027A0000870049807900798029008980190FFE736
:1027B000019880280BD3FFE7019840F08000029930
:1027C0004A1C029208700198C0090190F0E7019834
:1027D00002994A1C0292087002980790069807997D
:1027E000072201F0B3FD059880F311880AB080BD7F
:1027F00080B586B00590EFF311804FF0200181F392
:102800001188029041F25C00C2F2000001F00AFD62
:10281000039003980490059840F62041C2F200010D
:102820000969401A05900498019005980090FFE707
:10283000009880280BD3FFE7009840F080000199B2
:102840004A1C019208700098C0090090F0E70098B7
:1028500001994A1C01920870019804900398049908
:102860001D2201F073FD029880F3118806B080BD2F
:1028700080B586B00590EFF311804FF0200181F311
:102880001188029041F25C00C2F2000001F0CAFC23
:102890000390039804900498019005980090FFE736
:1028A000009880280BD3FFE7009840F08000019942
:1028B0004A1C019208700098C0090090F0E7009847
:1028C00001994A1C01920870019804900398049998
:1028D0001C2201F03BFD029880F3118806B080BDF8
:1028E00080B58AB009900891EFF311804FF0200174
:1028F00081F31188059041F25C00C2F2000001F002
:1029000091FC069006980790079804900998039008
:10291000FFE7039880280BD3FFE7039840F080007F
:1029200004994A1C049208700398C0090390F0E7C8
:10293000039804994A1C0492087004980790079819
:10294000029008980190FFE7019880280BD3FFE7D9
:10295000019840F0800002994A1C02920870019888
:10296000C0090190F0E7019802994A1C0292087090
:1029700002980790069807991C2201F0E7FC059839
:1029800080F311880AB080BD80B586B0EFF3118066
:102990004FF0200181F31188029041F25C00C2F2F5
:1029A000000001F03FFC0390039804904EF60450A1
:1029B000CEF2000000686FF35F200590049801904C
:1029C00005980090FFE7009880280BD3FFE7009858
:1029D00040F0800001994A1C019208700098C009DB
:1029E0000090F0E7009801994A1C01920870019844
:1029F000049003980499022201F0A8FC029880F345
:102A0000118806B080BD000080B586B00590EFF358
:102A100011804FF0200181F31188029041F25C0097
:102A2000C2F2000001F0FEFB0390039804900498AA
:102A30000190059840F62041C2F200010969401A50
:102A40000090FFE7009880280BD3FFE7009840F044
:102A5000800001994A1C019208700098C0090090FA
:102A6000F0E7009801994A1C0192087001980490BF
:102A700003980499132201F069FC029880F31188ED
:102A800006B080BD80B582B0EFF311804FF0200119
:102A900081F31188009041F25C00C2F2000001F065
:102AA000C1FB019001990322084601F04FFC0098F8
:102AB00080F3118802B080BD80B582B0EFF3118041
:102AC0004FF0200181F31188009041F25C00C2F2C6
:102AD000000001F0A7FB019001991222084601F0C5
:102AE00035FC009880F3118802B080BD80B582B0BB
:102AF000EFF311804FF0200181F31188009041F233
:102B00005C00C2F2000001F08DFB019001991422DB
:102B1000084601F01BFC009880F3118802B080BDCC
:102B200080B582B040F62040C2F20000006AB8B121
:102B3000FFE740F62040C2F20000006A006878B16A
:102B4000FFE740F62040C2F20000006A00688047BC
:102B5000019100900099019A0D2000F047F808E0DB
:102B600041F20400CEF2000001680C2000F004F8ED
:102B7000FFE702B080BD000080B588B007900691E5
:102B8000EFF311804FF0200181F31188039041F29F
:102B90005C00C2F2000001F045FB0490049805902F
:102BA0000598029006980190FFE7019880280BD3C2
:102BB000FFE7019840F0800002994A1C02920870D9
:102BC0000198C0090190F0E7019802994A1C02920D
:102BD00008700298059004980599079A01F0B6FBD1
:102BE000039880F3118808B080BD000080B58AB0DA
:102BF000099008910792EFF311804FF0200181F3C3
:102C00001188049041F25C00C2F2000001F00AFB5E
:102C10000590059806900698039008980290FFE7A3
:102C2000029880280BD3FFE7029840F080000399B8
:102C30004A1C039208700298C0090290F0E70298BB
:102C400003994A1C03920870039806900698019015
:102C500007980090FFE7009880280BD3FFE70098C3
:102C600040F0800001994A1C019208700098C00948
:102C70000090F0E7009801994A1C019208700198B1
:102C8000069005980699099A01F060FB049880F374
:102C900011880AB080BD000080B58EB00D900C91F7
:102CA0000B920A93EFF311804FF0200181F311880A
:102CB000079041F25C00C2F2000001F0B3FA089004
:102CC00008980990099806900C980590FFE70598D8
:102CD00080280BD3FFE7059840F0800006994A1C36
:102CE000069208700598C0090590F0E705980699C6
:102CF0004A1C0692087006980990099804900B984F
:102D00000390FFE7039880280BD3FFE7039840F078
:102D1000800004994A1C049208700398C00903902B
:102D2000F0E7039804994A1C0492087004980990EB
:102D3000099802900A980190FFE7019880280BD328
:102D4000FFE7019840F0800002994A1C0292087047
:102D50000198C0090190F0E7019802994A1C02927B
:102D6000087002980990089809990D9A01F0EEFAF6
:102D7000079880F311880EB080BD000080B590B038
:102D8000DDF848C00F900E910D920C93EFF3118077
:102D90004FF0200181F31188099041F25C00C2F2EA
:102DA000000001F03FFA0A900A980B900B980890E7
:102DB0000E980790FFE7079880280BD3FFE7079846
:102DC00040F0800008994A1C089208700798C009D2
:102DD0000790F0E7079808994A1C0892087008982D
:102DE0000B900B9806900D980590FFE705988028AA
:102DF0000BD3FFE7059840F0800006994A1C069225
:102E000008700598C0090590F0E7059806994A1CD6
:102E10000692087006980B900B9804900C980390FB
:102E2000FFE7039880280BD3FFE7039840F080006A
:102E300004994A1C049208700398C0090390F0E7B3
:102E4000039804994A1C0492087004980B900B98FC
:102E5000029012980190FFE7019880280BD3FFE7BA
:102E6000019840F0800002994A1C02920870019873
:102E7000C0090190F0E7019802994A1C029208707B
:102E800002980B900A980B990F9A01F05FFA099833
:102E900080F3118810B080BD80B592B0DDF854C0C9
:102EA000DDF850C0119010910F920E93EFF3118046
:102EB0004FF0200181F311880B9041F25C00C2F2C7
:102EC000000001F0AFF90C900C980D900D980A904D
:102ED00010980990FFE7099880280BD3FFE709981D
:102EE00040F080000A994A1C0A9208700998C009AB
:102EF0000990F0E709980A994A1C0A9208700A9802
:102F00000D900D9808900F980790FFE7079880287C
:102F10000BD3FFE7079840F0800008994A1C0892FD
:102F200008700798C0090790F0E7079808994A1CAD
:102F30000892087008980D900D9806900E980590CC
:102F4000FFE7059880280BD3FFE7059840F0800045
:102F500006994A1C069208700598C0090590F0E78A
:102F6000059806994A1C0692087006980D900D98CF
:102F7000049014980390FFE7039880280BD3FFE791
:102F8000039840F0800004994A1C0492087003984A
:102F9000C0090390F0E7039804994A1C0492087052
:102FA00004980D900D98029015980190FFE70198F4
:102FB00080280BD3FFE7019840F0800002994A1C5B
:102FC000029208700198C0090190F0E701980299F7
:102FD0004A1C0292087002980D900C980D99119A53
:102FE00001F0B4F90B9880F3118812B080BD000095
:102FF00080B584B00390EFF311804FF0200181F38E
:103000001188019041F25C00C2F2000001F00AF95F
:1030100002900299039A084601F098F9019880F30A
:10302000118804B080BD000080B58AB08DF82700FB
:1030300041F21860C2F200000068002878D0FFE773
:1030400041F21860C2F2000000680890002007906A
:10305000FFE707989DF8271088420CD2FFE70898F1
:1030600000690890089808B9FFE704E0FFE70798AF
:1030700001300790EDE70898002858D0FFE7EFF3FC
:1030800011804FF0200181F31188049041F25C001F
:10309000C2F2000001F0C6F8059005980690069867
:1030A00003909DF827000290FFE7029880280BD339
:1030B000FFE7029840F0800003994A1C03920870D1
:1030C0000298C0090290F0E7029803994A1C039203
:1030D0000870039806900698019008988068009000
:1030E000FFE7009880280BD3FFE7009840F08000AE
:1030F00001994A1C019208700098C0090090F0E7FD
:10310000009801994A1C019208700198069006984F
:1031100008990968802200F05DFD069005980699DF
:10312000162201F013F9049880F31188FFE7FFE7F6
:103130000AB080BD80B582B041F21860C2F20000D2
:103140000068C0B1FFE741F21860C2F200000068F9
:103150000190FFE70198C06820B1FFE70198C068BF
:103160008047FFE7019800690190FFE70198002878
:10317000F0D1FFE7FFE702B080BD000080B586B068
:10318000EFF311804FF0200181F31188039041F299
:103190005C00C2F2000001F045F80490049805902C
:1031A0000598029040F67430C2F200000078019059
:1031B000FFE7019880280BD3FFE7019840F08000DB
:1031C00002994A1C029208700198C0090190F0E728
:1031D000019802994A1C029208700298059004987E
:1031E00005991B2201F0B2F8039880F3118806B00C
:1031F00080BD000080B584B00390EFF311804FF0E4
:10320000200181F31188009041F25C00C2F20000BD
:1032100001F008F8019001980399802200F0DAFC8F
:103220000290019802990E2201F090F8009880F324
:10323000118804B080BD000080B590B00F90EFF30E
:1032400011804FF0200181F311880C9041F25C0055
:10325000C2F2000000F0E6FF0D900D980E900E985F
:103260000B900F98006840F62041C2F200010969F6
:10327000401A0A90FFE70A9880280BD3FFE70A98C4
:1032800040F080000B994A1C0B9208700A98C00904
:103290000A90F0E70A980B994A1C0B9208700B9859
:1032A0000E900E9809900F9880680890FFE7089894
:1032B00080280BD3FFE7089840F0800009994A1C4A
:1032C000099208700898C0090890F0E708980999D1
:1032D0004A1C0992087009980E900E980F99496837
:1032E000202200F077FC0E900D980E99092201F033
:1032F0002DF80D980E900E9807900F98006840F6E4
:103300002041C2F200010969401A0690FFE70698C1
:1033100080280BD3FFE7069840F0800007994A1CED
:10332000079208700698C0090690F0E7069807997A
:103330004A1C0792087007980E900E9805900F98F7
:10334000C0680490FFE7049880280BD3FFE7049837
:1033500040F0800005994A1C059208700498C00945
:103360000490F0E7049805994A1C059208700598A6
:103370000E900E9803900F9800690290FFE7029854
:1033800080280BD3FFE7029840F0800003994A1C85
:10339000039208700298C0090290F0E7029803991E
:1033A0004A1C0392087003980E900E98019000201A
:1033B0000090FFE7009880280BD3FFE7009840F0CB
:1033C000800001994A1C019208700098C009009081
:1033D000F0E7009801994A1C0192087001980E903C
:1033E0000D980E99152200F0B1FF0C9880F311880A
:1033F00010B080BD80B540F62040C2F20000006AE7
:1034000080B1FFE740F62040C2F20000006A406849
:1034100040B1FFE740F62040C2F20000006A406879
:103420008047FFE780BD000081B00090009840F623
:103430002041C2F200010969401A01B07047000042
:1034400080B590B040F62040C2F200000390012108
:103450000170EFF311824FF0200181F31188019286
:1034600001990F91407844F68D31C0F600010A228F
:103470000292FCF7D7FE02980F9981F31188FFF7AB
:10348000B7FDEFF311804FF0200181F311880C900C
:1034900041F25C00C2F2000000F0C4FE0146039855
:1034A0000D910D990E910E990B9140680A90FFE7CE
:1034B0000A9880280BD3FFE70A9840F080000B9908
:1034C0004A1C0B9208700A98C0090A90F0E70A9803
:1034D0000B994A1C0B9208700B980E900E9809904D
:1034E00040F62040C2F2000080680890FFE708988C
:1034F00080280BD3FFE7089840F0800009994A1C08
:10350000099208700898C0090890F0E7089809998E
:103510004A1C0992087009980E900E98079040F680
:103520002040C2F2000000690690FFE7069880285C
:103530000BD3FFE7069840F0800007994A1C0792DA
:1035400008700698C0090690F0E7069807994A1C8B
:103550000792087007980E900E980590002004902E
:10356000FFE7049880280BD3FFE7049840F0800021
:1035700005994A1C059208700498C0090490F0E768
:10358000049805994A1C0592087005980E900D98AC
:103590000E99182200F0DAFE0C9880F3118840F69C
:1035A0002040C2F20000406A38B1FFE740F62040F8
:1035B000C2F20000406A8047FFE7FFF7B1FAFFF769
:1035C00019FFFFF7DBFD10B080BD000080B582B0B1
:1035D000EFF311804FF0200181F31188009041F248
:1035E0005C00C2F2000000F01DFE019040F6204099
:1035F000C2F20000007860B1FFE701990B22084693
:1036000000F0A4FE40F62041C2F200010020087044
:10361000FFE7009880F3118802B080BD80B500F00C
:1036200001F880BD84B000200390029041F20001B7
:10363000C4F20201086840F480300860FFE741F2FC
:103640000000C4F20200006800F400300290039809
:1036500001300390FFE702990020019039B9FFE79C
:103660000398B0F5A06018BF01200190FFE7019812
:10367000C0070028E3D1FFE741F20000C4F20200D6
:1036800000688003002803D5FFE70120029002E0D4
:1036900000200290FFE70298012851D1FFE742F293
:1036A0000001C4F20201086840F0100008600868D8
:1036B00020F003000860086840F00200086041F252
:1036C0000401C4F2020100910868086008680860FB
:1036D000086840F480600860086820F47C10086086
:1036E000086840F4E810086041F20001C4F20201E9
:1036F000086840F080700860FFE741F20000C4F203
:10370000020000688001002801D4FFE7F5E741F2DC
:103710000401C4F20201086820F003000860086890
:1037200040F002000860FFE741F20400C4F202002A
:10373000006800F00C00082801D0FFE7F4E700E083
:10374000FFE704B07047000080B582B00090009899
:103750000138B0F1807F03D3FFE70120019019E029
:10376000009801384EF21401CEF2000108604FF0CB
:10377000FF300F2101F0A8F84EF21801CEF200013F
:10378000002008604EF21002CEF200020721116004
:103790000190FFE7019802B080BD000080B582B0C3
:1037A00041F20000CEF200000068C00740B9FFE718
:1037B00040F21C21C2F20001086801300860FFE7F6
:1037C00040F26010C2F2000090F8780020B9FFE7E4
:1037D000A520FDF705FDFFE740F26011C2F20001F0
:1037E000019191F87700013081F877000878013075
:1037F0000870FDF79DFA0198C06B40B1FFE740F2F9
:103800006010C2F20000C06B00688047FFE7FEF75F
:103810009FF9FDF725F940F26010C2F20000007830
:10382000012817D1FFE740F26010C2F200004068A3
:1038300080B1FFE740F26010C2F20000C06B40B1FF
:10384000FFE740F26010C2F20000C06B8068804762
:10385000FFE70FE040F26010C2F20000C06B40B121
:10386000FFE740F26010C2F20000C06B4068804782
:10387000FFE7FFE7802080F3118840F26010C2F27A
:103880000000007801281FD1FFE740F26010C2F26B
:1038900000004068C0B1FFE740F26010C2F20000D3
:1038A00090F8770020B9FFE79820FDF799FCFFE733
:1038B00040F26011C2F2000191F87700013881F8FE
:1038C0007700FCF777FD15E040F26010C2F20000CF
:1038D00090F8770020B9FFE79820FDF781FCFFE71B
:1038E00040F26011C2F2000191F87700013881F8CE
:1038F0007700FFE740F26011C2F20001087801385A
:103900000870002080F3118802B080BD84B00020D0
:1039100003900290019041F20400C4F2020000689A
:1039200000F00C0003900398009040B1FFE700986E
:1039300004280ED0FFE70098082814D056E040F283
:103940000801C2F2000141F20020C0F27A000860D2
:1039500056E040F20801C2F2000141F20020C0F23C
:103960007A0008604CE041F20400C4F202000168F1
:1039700001F470110291006800F480300190029906
:10398000022000EB91400290019860B9FFE7029895
:1039900040F60011C0F23D01484340F20801C2F276
:1039A0000001086021E041F20400C4F20200006856
:1039B000800300280CD5FFE7029840F60011C0F202
:1039C0003D01484340F20801C2F2000108600BE0EB
:1039D000029841F20021C0F27A01484340F2080106
:1039E000C2F200010860FFE7FFE709E040F20801CA
:1039F000C2F2000141F20020C0F27A000860FFE745
:103A000041F20400C4F202000068C0B2010944F6A9
:103A10001C30C0F60000405C0390039A40F208019D
:103A2000C2F200010868D040086004B0704700008E
:103A300080B541F20002C4F20202106840F00100B9
:103A4000106041F20401C4F2020108680023CFF6BD
:103A5000FF031840086010684FF6FF73CFF6F66357
:103A600018401060106820F480201060086820F46E
:103A7000FE00086041F20801C4F202014FF41F0089
:103A80000860FFF7CBFD4EF60851CEF200014FF073
:103A90000060086080BD000080B5012043F6000191
:103AA000C4F2010100F00CFE80BD000080B50020D2
:103AB00044F20041C4F2000100F002FE80BD0000AB
:103AC00080B5022044F60001C4F2000100F0F8FDC8
:103AD00080BD000010B50446E14890F8761059B159
:103AE000802181F311888068042180F84C10C46023
:103AF000BDE81040FDF72CBB407810B19A20FDF7CF
:103B00006FFBFEF7BFF8001BFBD410BD80B582B081
:103B100040F67830C2F2000001900198A821FCF72D
:103B200038FD01990320086101994861019844F624
:103B30001841C0F600018161019A41F21820C2F2D9
:103B40000000D061019A4FF480601062019A002059
:103B50009062019A5062019AD062019A1166019AAC
:103B600041F20821C2F200015166019A10219166CA
:103B7000019908670199C866019948670090FFE7B5
:103B800000980F280ED8FFE7009A44F67C30C0F664
:103B90000000801AC07B01998854FFE7009801302B
:103BA0000090EDE702B080BD80B541F22460C2F222
:103BB0000000006860B1FFE7FFE741F22460C2F255
:103BC000000000688047002801D4FFE7F5E7FFE721
:103BD00080BD000085B00490039102920020009007
:103BE000039898B1FFE7FFE703980099405C20B184
:103BF000FFE7009801300090F6E7009802998842AC
:103C000003D9FFE702980090FFE7FFE70098FE283E
:103C100006D8FFE7009804994A1C0492087010E047
:103C20000499481C0490FF200870009804994A1CCD
:103C3000049208700098000A04994A1C04920870C3
:103C4000FFE700200190FFE70198009988420CD21D
:103C5000FFE70398411C0391007804994A1C0492E1
:103C60000870019801300190EEE7049805B07047A4
:103C70002DE9F041794F39797A18481C92F82040A3
:103C80003871432C09D102313971796939B1C0B227
:103C9000384490F82000884701E0788910B100206E
:103CA000BDE8F0812046FDF7EFF8632C51D06C2C75
:103CB0002BD0742C37D0732C40F0CD80FDF762FAF6
:103CC000FDF7EEFF674DA847654CE069A847A0687F
:103CD000A8474CF69110FDF7C3F80120FDF7D4F882
:103CE000FDF7B4FA00F050FCFDF7CEFA00F04CFC02
:103CF000B4F87400B0F5807F40D3FC20FDF7C4F821
:103D0000B4F87400FDF7ACF83CE07420FDF7BCF8A3
:103D1000534800F118042468002C00F09C802046D1
:103D2000FDF7A8F8F7E7DFF84C8808F11806FDF76B
:103D30002BF890F84C5004463668A64234D0002E3A
:103D4000FAD144F24E10FDF78BF85420FDF79CF8A1
:103D500081E0FDF719F80446FDF708F881082268AC
:103D6000B2F1CD3F04D1043401390A04F7D1002166
:103D7000890020F0030089B2401A6AE0B4F87400A8
:103D8000FDF782F8FDF76CFCFDF774F8FDF76EFCAB
:103D90000446B0F57F4F05D34FF47F4040EA14400E
:103DA000FDF75EF8204654E0FDF7FAFFFDF762F8F4
:103DB000D8F808602046FDF72BFE00F0E5FB86EA08
:103DC000040026692843B0FA80F0B6F5807F4FEAF8
:103DD000501806D30020FDF757F83046FDF74AF893
:103DE00002E03046FDF750F8B8F1000F18BFFF258C
:103DF0002846FDF749F8A06808B1806800E0002077
:103E0000184DA847E068A8472046FDF735FCA847AD
:103E10002046FDF7ADFCA847206BA8472046FDF7DC
:103E200069FC0546B0F57F4F05D34FF47F4040EA6B
:103E30001540FDF715F82846FDF712F82046FDF766
:103E400017FEFDF721F894F84E00FDF71DF8FDF779
:103E500019FFFDF705F87889BDE8F08170000020B2
:103E600060010020750E000880B584B08DF80F0049
:103E70000020029041F22060C2F200000068009031
:103E80009DF80F000099087000980130009002988A
:103E90000130029041F22460C2F200000068F0B1EB
:103EA000FFE7FFE70298122801DBFFE716E041F287
:103EB0002460C2F200000068804701900198B0F1D0
:103EC000FF3F01DCFFE709E00198009908700098C6
:103ED00001300090029801300290E3E7FFE7802074
:103EE00080F3118800F0F0F9029840F66031C2F2D8
:103EF0000001096801F8160C40F26010C2F20000DF
:103F00004078102804D3FFE79920FDF769F9FFE70F
:103F100040F26010C2F20000407820B9FFE70020B4
:103F200080F31188FFE704B080BD000080B584B045
:103F300040F62040C2F20000007E0DF10F01012288
:103F4000FEF70EF902900298012864DBFFE79DF866
:103F50000F0001460191012820D0FFE701980228B7
:103F60001FD0FFE7019803281ED0FFE7019804281F
:103F70001DD0FFE7019805281CD0FFE7019806280F
:103F80001BD0FFE7019807281AD0FFE701987F2888
:103F90002ED0FFE70198802815D02AE0FFF750FACD
:103FA00038E0FFF713FB35E0FEF7BAFD32E0FFF72C
:103FB00021FA2FE0FEF7A4F92CE0FFF7DFF829E063
:103FC000FFF7B8F826E040F62040C2F20000007E7D
:103FD0000DF10F010122FEF7C3F8029002980128AB
:103FE00005DBFFE79DF80F00FFF71EF8FFE711E084
:103FF00010E09DF80F0080280BDBFFE740F6204023
:10400000C2F20000007E0DF10F010122FEF7A8F8B8
:10401000FFE7FFE7FFE704B080BD000081B04EF688
:104020000850CEF2000000680090009820F03F0099
:1040300000900098006840F66031C2F2000108600C
:104040000A68002002F8170C0B68082203F8022CFB
:104050000B68122203F8032C0A6802F8180C0A688D
:1040600002F8160C0B68522203F8012C0A68153A64
:1040700041F22063C2F200031A600968203941F25C
:104080001C62C2F20002116040F64C41C2F2000113
:10409000086001B07047000080B582B00020019038
:1040A000802080F3118840F64840C2F2000000688A
:1040B00040B9FFE740F64841C2F200010120086024
:1040C0000190FFE740F26010C2F200004078102833
:1040D00004D3FFE79920FDF783F8FFE740F2601073
:1040E000C2F20000407820B9FFE7002080F3118879
:1040F000FFE7019802B080BD4EF21800CEF200003A
:10410000006870474EF60450CEF20000006800F0E0
:104110008060704770B5414DA878092812D8DFE853
:1041200000F005131B292C3C3F434C52688910B901
:10413000687800286DD000208C24A8810120A87008
:10414000287064E0002462E068890221002808BF2A
:104150000721A970ED245AE06C89F02C3DBF6C72E8
:104160000420A870032021BFA870F02040EA142486
:104170006C724CE00420AC7A14E0A889284A411CF7
:10418000145C687AA98189B2204468726889814286
:104190003DD100206881052004E006206C7A01E012
:1041A00000208D24A87032E00820A87068780130C3
:1041B000687268780130C4B229E009204324A870ED
:1041C000687A433022E0A889A9690C5C0130A88193
:1041D00080B26978884217D105200026A870802017
:1041E00080F311886E70286918B12869FDF7E4F929
:1041F0002E61E04E7078102801D3FDF713FE707821
:1042000010B9002080F31188687A20446872204633
:1042100070BD00204FF0FF3492E700BF7000002017
:104220004011002081B000900098043001B0704728
:1042300080B582B040F66030C2F20000006810F82D
:10424000180C01283EDBFFE741F22860C2F20000B3
:10425000006870B3FFE741F21C60C2F20000006822
:1042600040F66031C2F20001096811F8181C401ACA
:104270000830009000200190FFE7019840F660317F
:10428000C2F20001096811F8181C884210DAFFE731
:1042900041F22860C2F20000016800980078884767
:1042A000009801300090FFE7019801300190E4E7A9
:1042B000FFE740F66030C2F200000168002001F81C
:1042C000180CFFE702B080BD40F65841C2F2000171
:1042D0004FF47A700860704780B540F66030C2F2E3
:1042E0000000006810F8160C70BBFFE700F044F9FE
:1042F00040F64C40C2F20000006870B1FFE740F6A3
:104300005040C2F200000078FFF7AEFD40F64C418D
:10431000C2F200010020086015E041F22C60C2F2F8
:104320000000006870B1FFE7FFF7B6FE48B1FFE795
:1043300041F22C60C2F200000068804700F0BCFA35
:10434000FFE7FFE7FFE7FFE780BD000080B58AB029
:1043500009900891079240F62040C2F200000078D0
:10436000012801D1FFE71CE040F62040C2F2000026
:10437000007808B9FFE7B1E040F62040C2F2000043
:10438000007802280CD1FFE700F024F940F6204025
:10439000C2F200000078012801D0FFE79EE0FFE7AD
:1043A000FFE707981F280CD8FFE740F62040C2F22D
:1043B0000000C0690799C840C00708B1FFE78DE059
:1043C000FFE70798172807D8FFE7079809994A1EBB
:1043D000099201F8010C3AE008980999401A0690F0
:1043E0000698802810D3FFE70698C00909994A1E4D
:1043F000099201F8010C069840F0800009994A1EC4
:10440000099201F8010C06E0069809994A1E0992E2
:1044100001F8010CFFE70798802810D3FFE7079801
:10442000C00909994A1E099201F8010C079840F049
:10443000800009994A1E099201F8010C06E00798CC
:1044400009994A1E099201F8010CFFE7FFE741F2C2
:104450000400CEF2000000680590059840F6204167
:10446000C2F20001C968401A0490089802900498AA
:104470000190FFE7019880280BD3FFE7019840F0F7
:10448000800002994A1C029208700198C0090190AC
:10449000F0E7019802994A1C02920870029808906D
:1044A00040F62040C2F2000040780999089A521A5A
:1044B000FBF7B8FE0390039838B1FFE7059840F684
:1044C0002041C2F20001C86007E040F62041C2F27C
:1044D0000001087801300870FFE7FFE740F620424E
:1044E000C2F20002107E40F67831C2F20001603163
:1044F00000EB400001EBC000C068127E02EB4202FC
:1045000001EBC2010969401AA8B1FFE740F620405B
:10451000C2F20000807868B9FFE740F62041C2F29D
:104520000001009101208870FFF700FD0099002034
:104530008870FFE7FFE70AB080BD000010B580205B
:1045400080F311882148007830B9FFF7E3FD002897
:1045500002D4C0B2FCF77AFC064C6078102801D374
:10456000FDF760FC607800B110BD002080F3118879
:1045700010BD00BF6001002040F65841C2F20001AA
:104580000020086070470000F8B5104E044670899E
:10459000C0F1C7051E2D28BF1E2534B1002085425D
:1045A00006D0215C19B10130F9E7002500E005468D
:1045B0002846FCF769FC45B17789054821462A461B
:1045C0003844FBF799FF78197081F8BD700000201E
:1045D0004011002080B58CB001208DF819000DF13C
:1045E0001900013005900598049040F62040C2F271
:1045F000000040690390FFE7039880280BD3FFE792
:10460000039840F0800004994A1C049208700398B3
:10461000C0090390F0E7039804994A1C04920870BB
:104620000498059041F20400CEF2000000680B905F
:104630000B9840F62041C2F20001C968401A0A9066
:10464000059802900A980190FFE7019880280BD303
:10465000FFE7019840F0800002994A1C029208701E
:104660000198C0090190F0E7019802994A1C029252
:1046700008700298059040F62040C2F20000407891
:10468000059A0DF11901521AFBF7CCFD0990099812
:1046900050B1FFE70B9840F62041C2F20001C8601C
:1046A00008780138087007E040F62041C2F20001A6
:1046B000486901304861FFE709980CB080BD0000EF
:1046C00080B584B00390029140F26010C2F2000005
:1046D00090F8780020B9FFE7A520FCF781FDFFE7FF
:1046E00040F26011C2F20001009191F877000130B0
:1046F00081F87700087801300870FCF719FB009802
:10470000C06B40B1FFE740F26010C2F20000C06B26
:1047100000688047FFE7029800688DF80700FFE710
:104720009DF80700800600281FD5FFE70298406823
:104730008DF806009DF807000007A8B9FFE7039968
:1047400041F23060C2F2000050F8210058B1FFE79A
:10475000039841F23061C2F2000151F820209DF827
:1047600006109047FFE7FFE7FFE7029800688DF823
:104770000700FFE79DF8070080060028D0D4FFE778
:104780009DF80700000600281AD5FFE7039941F2BB
:104790003C60C2F2000050F8210080B1FFE70398AE
:1047A00041F23C61C2F2000151F82010884730B15B
:1047B000FFE70299C86820F04000C860FFE7FFE704
:1047C00040F26010C2F200000078012817D1FFE724
:1047D00040F26010C2F20000406880B1FFE740F292
:1047E0006010C2F20000C06B40B1FFE740F2601001
:1047F000C2F20000C06B80688047FFE70FE040F224
:104800006010C2F20000C06B40B1FFE740F26010E0
:10481000C2F20000C06B40688047FFE7FFE78020DE
:1048200080F3118840F26010C2F200000078012885
:104830001FD1FFE740F26010C2F200004068C0B133
:10484000FFE740F26010C2F2000090F8770020B954
:10485000FFE79820FCF7C4FCFFE740F26011C2F2CA
:10486000000191F87700013881F87700FBF7A2FD8D
:1048700015E040F26010C2F2000090F8770020B915
:10488000FFE79820FCF7ACFCFFE740F26011C2F2B2
:10489000000191F87700013881F87700FFE740F2D6
:1048A0006011C2F20001087801380870002080F31E
:1048B000118804B080BD000040F64841C2F20001FA
:1048C000002008607047000082B08DF8070000915A
:1048D0009DF9070000280AD4FFE7009800019DF920
:1048E00007104EF20042CEF2000288540BE000980E
:1048F00000019DF8071001F00F014EF61452CEF2A0
:1049000000028854FFE702B07047000080B544F60B
:104910002940C0F60000FEF76DFC44F65340C0F697
:104920000000FEF767FC80BD80B586B0059040F2C0
:104930006011C2F200010878013008700020049074
:104940000390029001900090059800900598FDF763
:104950005FF801900598006902900598FCF78CFEBD
:1049600003900598806A04906846FEF765FCFDF7A1
:10497000BDF806B080BD000080B582B040F2601086
:10498000C2F2000001780131017080690190FFE7F7
:10499000019840B1FFE70198FFF7C6FFFFE70198D4
:1049A00000680190F4E740F26010C2F20000406E2F
:1049B0000090FFE7009850B1FFE7009948688968C8
:1049C000FDF780FDFFE7009800680090F2E7FDF733
:1049D0008DF802B080BD000080B582B00190FCF778
:1049E000B3FD02B080BD000081B0009001B07047FF
:1049F00081B00090012001B07047000080B582B006
:104A00000190FCF7AFFD02B080BD000081B00090C6
:104A1000FFE7FEE780B588B000200790FCF7FAFCBE
:104A2000FCF76CFCFBF776FEFCF70EF969460220FA
:104A3000059088604FF400700690486040F2202096
:104A4000C2F20000086040F62020C2F2000044F6E6
:104A5000FD31C0F6000140F63513C0F600036422B4
:104A6000FCF7FEFE059A069869468A60486040F2A7
:104A70002040C2F20000086040F6C020C2F20000F0
:104A800044F60541C0F6000140F6A943C0F6000314
:104A900032220492FCF7E4FE049A059B06986946CC
:104AA0008B60486040F62000C2F20000086040F6CB
:104AB0001030C2F2000044F60D41C0F6000141F68C
:104AC0008573C0F60003FCF7CBFE059A069869468D
:104AD0008A60486040F22060C2F20000086040F640
:104AE0007020C2F2000044F6F431C0F6000140F636
:104AF000BD43C0F600031922FCF7B2FEFCF7E0FB51
:104B00004CF69111884204D0FFE7FD20FCF768FBCA
:104B1000FFE7FDF715F9002008B080BD0000000098
:104B200000000000010203040607080908181C2001
:104B3000242C00040C1014181C24282C3034383C6D
:104B4000404C4D4E436F72746578204D332F4D3479
:104B50002F4D370076374C445000000020000000F5
:104B60004F535F49646C65282900000091C900001B
:104B7000604C0008BD1C00087949000800000000D6
:104B8000000054545220524547474553000000004E
:104B9000000000000000000089290008852A0008A4
:104BA000B92A0008294900088525000805260008BB
:104BB0000527000885260008392700085125000828
:104BC000F12F0008792B0008ED2B0008992C000824
:104BD0007D2D000829340008092A0008ED2A000864
:104BE00071280008E1280008F1270008992E000824
:104BF000C52400084C4544205461736B0048502084
:104C00005461736B004C50205461736B004F746897
:104C10006572205461736B005465726D696E616CCE
:104C20000053797356696577004E3D656D624F5349
:104C30002073746172742070726F6A6563742C4F94
:104C40003D656D624F532C443D53544D33324631D4
:104C5000303300492331353D5379735469636B0018
:104C600053454747455220656D624F5320563531B5
:104C70003630317500000000984C0008000000201C
:104C8000100000006C010008A84C00081000002073
:104C9000381E00008801000801000000010000002B
:084CA00000A24A04000000001C
:0400000508000131BD
:00000001FF
